:100000000C945F000C9489000C94B6000C9487004B
:100010000C9487000C9487000C9487000C94650561
:100020000C9487000C9487000C9487000C94870034
:100030000C9487000C9487000C9487000C94870024
:100040000C94E3000C9487000C9409030C944C036B
:100050000C9487000C9487000C9487000C94870004
:100060000C9487000C948700000000070002010038
:100070000003040600000000000000000102040864
:100080001020408001020408102001020408102002
:10009000040404040404040402020202020203032E
:1000A0000303030300000000250028002B000000CC
:1000B0000000240027002A000200CB034E04112474
:1000C0001FBECFEFD8E0DEBFCDBF11E0A0E0B1E0B2
:1000D000ECEFFBE002C005900D92A831B107D9F713
:1000E00011E0A8E1B1E001C01D92AD3DB107E1F71B
:1000F00010E0CEEBD0E004C02297FE010E94F8058C
:10010000CA3BD107C9F70E9459040C94FC050C9412
:1001100000001F920F920FB60F9211242F933F935E
:100120004F935F936F937F938F939F93AF93BF93FF
:10013000EF93FF938091180190911901892B29F079
:10014000E0911801F09119010995FF91EF91BF918C
:10015000AF919F918F917F916F915F914F913F915F
:100160002F910F900FBE0F901F9018951F920F9216
:100170000FB60F9211242F933F934F935F936F937A
:100180007F938F939F93AF93BF93EF93FF93809150
:100190001A0190911B01892B29F0E0911A01F0912D
:1001A0001B010995FF91EF91BF91AF919F918F91A5
:1001B0007F916F915F914F913F912F910F900FBE63
:1001C0000F901F9018951F920F920FB60F92112447
:1001D0002F933F938F939F93AF93BF9380911C0175
:1001E00090911D01A0911E01B0911F013091240139
:1001F000232F2D5F2D3768F1232F2A570296A11D3B
:10020000B11D2093240180931C0190931D01A093A4
:100210001E01B0931F018091200190912101A091B6
:100220002201B09123010196A11DB11D80932001EF
:1002300090932101A0932201B0932301BF91AF912C
:100240009F918F913F912F910F900FBE0F901F9014
:1002500018950196A11DB11DD4CF0F931F939FB781
:10026000F8940091200110912101209122013091F8
:10027000230186B5A89B06C08F3F21F00F5F1F4F5B
:100280002F4F3F4F9FBF322F212F102F0027080FD6
:10029000111D211D311D000F111F221F331F000FC3
:1002A000111F221F331FB801C9011F910F9108951B
:1002B000CF92DF92EF92FF92CF93DF936B017C019D
:1002C0000E942D01EB01C114D104E104F10499F065
:1002D0000E942D016C1B7D0B683E7340A0F381E0F2
:1002E000C81AD108E108F108C851DC4FC114D10483
:1002F000E104F10469F7DF91CF91FF90EF90DF9077
:10030000CF900895789484B5826084BD84B581606F
:1003100084BD85B5826085BD85B5816085BDEEE60D
:10032000F0E0808181608083E1E8F0E010828081EC
:1003300082608083808181608083E0E8F0E080815A
:1003400081608083E1EBF0E0808184608083E0EB7A
:10035000F0E0808181608083EAE7F0E08081846062
:1003600080838081826080838081816080838081BE
:10037000806880831092C1000895833031F160F06D
:100380008630C9F0873069F0843051F48091800064
:100390008F7D809380000895813099F0823039F00C
:1003A00008958091B0008F7D8093B000089584B54A
:1003B0008F7D84BD08958091B0008F778093B000C9
:1003C000089584B58F7784BD0895809180008F77DC
:1003D000809380000895CF93DF9390E0FC01E45870
:1003E000FF4F4491FC01E057FF4F84918823D1F0E7
:1003F00090E0880F991FFC01E255FF4F2591349141
:10040000D9018C559F4FFC0185919491C82FD92F0C
:100410009FB7F8948C91662341F0623081F0842B71
:100420008C939FBFDF91CF910895409584238C9347
:100430008881842388839FBFDF91CF910895242FE3
:10044000209582238C938881842B88839FBFEACF59
:100450000F931F93CF93DF931F92CDB7DEB7282F53
:1004600030E0F901E859FF4F8491F901E458FF4F5A
:100470000491F901E057FF4F14911123A1F081116C
:100480001CC0E12FF0E0EE0FFF1FEC55FF4F8591F0
:100490009491DC018FB7F8949C9161110AC000958A
:1004A00090239C938FBF0F90DF91CF911F910F915D
:1004B0000895902B9C938FBFF6CF69830E94BD0156
:1004C0006981DFCFFC0184859585FC01E05CFF4FED
:1004D00020813181FC01EE5BFF4F80819181281BDF
:1004E000390B2F733327C9010895FC018485958545
:1004F000FC01E05CFF4F40815181FC01EE5BFF4F4E
:10050000208131814217530749F00190F081E02D9D
:10051000E80FF91F208130E0C90108952FEF3FEF68
:10052000FBCFFC0184859585FC01E05CFF4F408199
:100530005181FC01EE5BFF4F20813181421753074F
:1005400089F0A081B181A80FB91F8C9120813181E0
:100550002F5F3F4F2F73332731832083282F30E0C5
:10056000C90108952FEF3FEFFBCFFC0181A181115D
:1005700002C011A20895A489B5898C9186FFFDCF90
:1005800011A20895CF93DF93DC011E968D919C916B
:100590001F97EC01C05CDF4F488159814F5F5F4F6F
:1005A0004F735527FC01EE5BFF4F208131812417EB
:1005B0003507D9F3E881F981E80FF91F60831E96AA
:1005C000ED91FC911F97E05CFF4F5183408356965D
:1005D000ED91FC915797208181E090E05F960C901F
:1005E0005F9702C0880F991F0A94E2F7282B208397
:1005F00081E091968C9391975496ED91FC9155974B
:1006000080818064808381E090E0DF91CF910895C4
:1006100008951F920F920FB60F9211242F933F93BC
:100620004F938F939F93EF93FF938091C00082FD30
:1006300027C04091C6008091CB019091CC010196DA
:100640008F7399272091CD013091CE0182179307A6
:1006500059F0E091CB01F091CC01E557FE4F40837A
:100660009093CC018093CB01FF91EF919F918F915B
:100670004F913F912F910F900FBE0F901F901895A3
:100680008091C600F1CF85E291E00E946202892B41
:1006900009F408950C9408031F920F920FB60F925D
:1006A00011242F933F938F939F93EF93FF93209168
:1006B0008701309188018091890190918A012817E2
:1006C0003907F9F0E0918901F0918A01E95BFE4F69
:1006D00020818091890190918A0101968F739927D9
:1006E00090938A01809389012093C600FF91EF9136
:1006F0009F918F913F912F910F900FBE0F901F9060
:1007000018958091C1008F7D8093C100EFCF8F92AB
:100710009F92AF92BF92CF92DF92EF92FF920F9390
:100720001F93CF93DF93CDB7DEB7FC011382128204
:1007300088EE93E0A0E0B0E084839583A683B7833E
:1007400084E091E09183808375876487578746872B
:10075000318B208B138B028BF58AE48AD78AC68A69
:10076000B18EA08E938E828E8F85848F8889858F9F
:100770008989868F8A89878F8B8980A3DF91CF9122
:100780001F910F91FF90EF90DF90CF90BF90AF90AF
:100790009F908F9008958F929F92AF92BF92CF9229
:1007A000DF92EF92FF920F931F9381E08F9385E08A
:1007B0008F9387E08F9383E08F9384E08F9386EC11
:1007C000882E912C92ECA92EB12C21ECC22ED12C8A
:1007D00030ECE32EF12C04EC10E025EC30E047E4A3
:1007E00051E06BE871E085E291E00E9487030F9091
:1007F0000F900F900F900F901F910F91FF90EF901F
:10080000DF90CF90BF90AF909F908F900895AF9260
:10081000BF92CF92DF92EF92FF920F931F93CF93ED
:10082000DF935C018B01C0E0D0E0E12CF12CF501FD
:10083000EC0FFD1F4AE050E06281C8010E942305D1
:100840006C016EE2C8010E9495048C0D9D1DE80E9E
:10085000F91E2196C330D10551F74AE050E0F50169
:100860006581C8010E942305E80EF91EC701DF91CA
:10087000CF911F910F91FF90EF90DF90CF90BF909D
:10088000AF9008950F93FC0184E191E09183808300
:1008900062834383248305830F9108950F9300E0BF
:1008A00020E040E060E08FEC91E00E9442040F9174
:1008B00008950E9482010E94C1050E94C50583E43B
:1008C00093E0892B29F00E9443030E94C505FBCFCA
:1008D0000E94C5050E94C505FBCFCF92DF92EF9223
:1008E000FF920F931F93CF93DF937C016B01EA017B
:1008F00000E010E0209779F0D6016D916D01D701ED
:10090000ED91FC910190F081E02DC7010995080F50
:10091000191F219789F7C801DF91CF911F910F917E
:10092000FF90EF90DF90CF900895DC01ED91FC9166
:100930000190F081E02D09944F925F926F927F9227
:100940009F92AF92BF92CF92DF92EF92FF920F935E
:100950001F93CF93DF93CDB7DEB7A1970FB6F8946F
:10096000DEBF0FBECDBF5C016A017B01922E19A2D2
:1009700081E0821708F04FC0422E512C612C712C5F
:100980008E010F5D1F4F0AC0805DD8018C936901F5
:100990007A01C114D104E104F10481F0C701B60168
:1009A000A30192010E94D4058C2D929E80191124DE
:1009B000015011098A3044F3895CE7CF0115110514
:1009C00091F1D8010D900020E9F7AD014150510996
:1009D000401B510BD501ED91FC910280F381E02D7C
:1009E000B801C50109959C01C901A1960FB6F894FB
:1009F000DEBF0FBECDBFDF91CF911F910F91FF9052
:100A0000EF90DF90CF90BF90AF909F907F906F90CE
:100A10005F904F9008958AE0482E512C612C712CE4
:100A20009AE0992EADCF20E030E0DECF21153105E0
:100A300011F00C949C04DC01ED91FC910190F0818B
:100A4000E02D642F09949A01462F50E060E070E099
:100A50000C9416058130C1F018F410926E000895C0
:100A6000823009F00895809170008D7F809370002E
:100A700081E08093B0008091B100887F8460809392
:100A8000B1001092B300089580916F008D7F809324
:100A90006F000895CF93C82F809116018C1741F0F5
:100AA0008FEF0E942A0560E08C2FCF910C942802D2
:100AB000E8EBF0E084919FEF909316010E942A05E5
:100AC00060E08C2FCF910C9428021F920F920FB6EA
:100AD0000F9211242F933F934F935F936F937F93C4
:100AE0008F939F93AF93BF93EF93FF938091D80120
:100AF0009091D901A091DA01B091DB01892B8A2B69
:100B00008B2BD1F19091D501E091D601F091D701D5
:100B10008081892780838091D8019091D901A0910B
:100B2000DA01B091DB01181619061A061B069CF4AF
:100B30008091D8019091D901A091DA01B091DB01A7
:100B40000197A109B1098093D8019093D901A0938D
:100B5000DA01B093DB01FF91EF91BF91AF919F91CB
:100B60008F917F916F915F914F913F912F910F9056
:100B70000FBE0F901F901895809116010E944A0594
:100B8000EACF61E08EE00C94EB016091DC0181E042
:100B900068276093DC018EE00E94280264EF71E018
:100BA00080E090E00C945801A1E21A2EAA1BBB1B16
:100BB000FD010DC0AA1FBB1FEE1FFF1FA217B30729
:100BC000E407F50720F0A21BB30BE40BF50B661F3F
:100BD000771F881F991F1A9469F760957095809503
:100BE00090959B01AC01BD01CF010895EE0FFF1F51
:0C0BF0000590F491E02D0994F894FFCFDB
:100BFC0000000000C2026D04620291027502B5028F
:080C0C00000000000704FF00D6
:00000001FF
