:020000040800F2
:100000000C08002089010008F5010008F50100082E
:10001000F5010008F5010008F501000800000000E6
:10002000000000000000000000000000F5010008D2
:10003000F501000800000000F5010008F5010008C6
:10004000F5010008F5010008F5010008F5010008B8
:10005000F5010008F5010008F5010008F5010008A8
:10006000F5010008F5010008F5010008F501000898
:10007000F5010008F5010008F5010008F501000888
:10008000F5010008F5010008F5010008F501000878
:10009000F5010008F5010008F5010008F501000868
:1000A000F5010008F5010008F5010008F501000858
:1000B000F5010008F5010008F5010008F501000848
:1000C000F5010008F5010008F5010008F501000838
:1000D000F5010008F5010008F5010008F501000828
:1000E000F5010008F5010008F5010008F501000818
:1000F000F5010008F5010008F5010008F501000808
:10010000F5010008F5010008F5010008F5010008F7
:10011000F5010008F5010008F5010008F5010008E7
:10012000F5010008F5010008F5010008F5010008D7
:10013000F5010008F5010008F5010008F5010008C7
:10014000F5010008F5010008F5010008F5010008B7
:10015000F5010008F5010008F5010008F5010008A7
:10016000F5010008F5010008F5010008F501000897
:10017000F5010008F5010008F5010008F501000887
:10018000F5010008F501000880B582B000AF40F627
:100190007C73C0F600037B6040F20003C2F20003F0
:1001A0003B600BE07B681A683B681A603B6803F1B0
:1001B00004033B607B6803F104037B603A6840F210
:1001C0000003C2F200039A42ECD3084808494FF0FA
:1001D00000028842B8BF40F8042BFFF6FAAF00F0E7
:1001E0000DF807F10807BD4680BD000000000020A3
:1001F0001000002080B400AFFEE700BF80B582B0E1
:1002000000AF00F0ADFD00F071F84FF01F0000F0FE
:10021000E3F84FF00A004FF0320100F0C1F84FF060
:1002200000037B600AE04FF00003C6F210034FF4B6
:1002300078421A807B6803F101037B607B68632B43
:10024000F1D9FEE780B483B000AF78600B46FB7055
:10025000FB78002B0CD04FF46053C4F202034FF430
:100260006052C4F20202116B7A680A431A630DE00D
:100270004FF46053C4F202034FF46052C4F202021E
:10028000116B7A686FEA02020A401A6307F10C07E1
:10029000BD4680BC704700BF80B483B000AF7860BB
:1002A0000B46FB70FB78002B0CD04FF46053C4F26C
:1002B00002034FF46052C4F20202916B7A680A435F
:1002C0009A630DE04FF46053C4F202034FF460529E
:1002D000C4F20202916B7A686FEA02020A409A63E2
:1002E00007F10C07BD4680BC704700BF80B582B0E7
:1002F00000AF4FF00003FB714FF00003BB8000F034
:10030000A7F841F2883000F04DFB00F0C7F941F248
:10031000883000F047FB4FF0000000F015FB03466B
:10032000BB80BA8847F283739A420FD14FF0010322
:10033000FB7141F2300000F009FA40F20003C2F212
:1003400000034FF000021A7000F076F840F2040348
:10035000C2F200034FF000021A8040F20403C2F21E
:1003600000034FF000025A8040F20403C2F200037F
:100370004FF0EF029A8040F20403C2F2000340F211
:100380003F12DA8040F20403C2F200034FF49632C7
:100390009A60FB79184607F10807BD4680BD00BF8B
:1003A00080B582B000AF02460B46FA80BB80FB8866
:1003B0004FF02000194600F0DDFABB884FF0210015
:1003C000194600F0D7FA4FF0C0434FF022021A80CE
:1003D00007F10807BD4680BD80B584B000AF034675
:1003E000FB804FF00003FB6040F20403C2F2000305
:1003F0001A8840F20403C2F200035B8810461946D3
:10040000FFF7CEFF4FF00003FB6009E04FF0000361
:10041000C6F21003FA881A80FB6803F10103FB603F
:1004200040F20403C2F200039A68FB689A42EDD8D6
:1004300007F11007BD4680BD80B400AF4FF4806364
:10044000C4F202034FF001025A83BD4680BC7047DC
:1004500080B582B000AF4FF002004FF00101FFF70E
:10046000F1FE4FF008004FF00101FFF7EBFE4FF0F7
:1004700010004FF00101FFF7E5FE4FF001033B6074
:100480004FF001033B714FF00003BB714FF00103CC
:10049000FB714FF002037B713B464FF48060C4F266
:1004A0000200194600F066FB4FF44060C4F20200FF
:1004B0004FF000014FF00C0200F0FEFB4FF44060E3
:1004C000C4F202004FF001014FF00C0200F0F4FB07
:1004D0004FF44060C4F202004FF004014FF00C02F0
:1004E00000F0EAFB4FF44060C4F202004FF0050157
:1004F0004FF00C0200F0E0FB4FF44060C4F2020049
:100500004FF007014FF00C0200F0D6FB4FF44060B3
:10051000C4F202004FF008014FF00C0200F0CCFBD7
:100520004FF44060C4F202004FF009014FF00C029A
:1005300000F0C2FB4FF44060C4F202004FF00A0129
:100540004FF00C0200F0B8FB4FF44060C4F2020020
:100550004FF00E014FF00C0200F0AEFB4FF4406084
:10056000C4F202004FF00F014FF00C0200F0A4FBA8
:100570004CF2B3733B604FF002033B714FF0030347
:100580007B714FF00003BB714FF00003FB713B46E2
:100590004FF44060C4F20200194600F0EBFA4FF449
:1005A0008050C4F202004FF003014FF00C0200F043
:1005B00083FB4FF48050C4F202004FF007014FF06C
:1005C0000C0200F079FB4FF48050C4F202004FF0AF
:1005D00008014FF00C0200F06FFB4FF48050C4F2A2
:1005E00002004FF009014FF00C0200F065FB4FF4E0
:1005F0008050C4F202004FF00A014FF00C0200F0EC
:100600005BFB4FF48050C4F202004FF00B014FF03F
:100610000C0200F051FB4FF48050C4F202004FF086
:100620000C014FF00C0200F047FB4FF48050C4F275
:1006300002004FF00D014FF00C0200F03DFB4FF4B3
:100640008050C4F202004FF00E014FF00C0200F097
:1006500033FB4FF48050C4F202004FF00F014FF013
:100660000C0200F029FB4FF688733B604FF0020349
:100670003B714FF003037B714FF00003BB714FF0F0
:100680000003FB713B464FF48050C4F20200194650
:1006900000F070FA07F10807BD4680BD80B596B03E
:1006A00000AF4FF001004FF00101FFF7F5FD4FF0F3
:1006B00009033B604FF001037B604FF00703BB6011
:1006C0004FF00003FB604FF000033B614FF000036D
:1006D0007B614FF00003BB614FF00003FB614FF003
:1006E00000033B624FF000037B624FF01003BB62DC
:1006F0004FF00003FB624FF000033B634FF0000339
:100700007B634FF00003BB634FF00003FB634FF4C8
:1007100080533B644FF000037B644FF00003BB64E5
:100720004FF00003FB643B463B653B467B6507F1AE
:100730001C03184600F04CF94FF000004FF0010187
:1007400000F0EEF907F15807BD4680BD80B582B0D4
:1007500000AF0346FB804FF0FF004FF0010100F0B7
:1007600009F94FF0F3004FF0080100F003F94FF0E2
:1007700001004FF4807100F0FDF84FF002004FF4DB
:10078000E06100F0F7F8FB884FF00300194600F035
:10079000F1F84FF0080040F2072100F0EBF84FF0BD
:1007A00009004FF0000100F0E5F84FF00A004FF0AB
:1007B000000100F0DFF84FF010004FF0000100F0F2
:1007C000D9F84FF011004FF0050100F0D3F84FF0C9
:1007D00012004FF0000100F0CDF84FF013004FF081
:1007E000000100F0C7F841F2883000F0DBF84FF06C
:1007F000100041F2B02100F0BDF841F2883000F065
:10080000D1F84FF011004FF0070100F0B3F841F2BA
:10081000883000F0C7F84FF012004FF08B0100F065
:10082000A9F841F2883000F0BDF84FF013004FF402
:10083000B85100F09FF841F2883000F0B3F84FF063
:1008400029004FF0220100F095F84FF030004FF0F2
:10085000000100F08FF84FF0310040F2077100F016
:1008600089F84FF0320040F2055100F083F84FF064
:10087000350040F2071100F07DF84FF036004FF0E0
:10088000080100F077F84FF037004FF0000100F05A
:1008900071F84FF0380040F2022100F06BF84FF091
:1008A00039004FF4837100F065F84FF03C0040F2DE
:1008B000022100F05FF84FF03D004FF4816100F03D
:1008C00059F841F2883000F06DF84FF050004FF0C9
:1008D000000100F04FF84FF051004FF0EF0100F031
:1008E00049F84FF052004FF0000100F043F84FF08C
:1008F000530040F23F1100F03DF84FF060004FF41C
:10090000274100F037F84FF061004FF0010100F08F
:1009100031F84FF090004FF0330100F02BF84FF01A
:100920002B004FF00B0100F025F84FF0070040F2CC
:10093000331100F01FF841F2883000F033F807F16E
:100940000807BD4680BD00BF80B483B000AF03463A
:10095000FB714FF0C043FA7992B21A804FF0000356
:10096000C6F210031B889BB2184607F10C07BD4660
:1009700080BC704780B483B000AF02460B46FA716A
:10098000BB804FF0C043FA7992B21A804FF0000357
:10099000C6F21003BA881A8007F10C07BD4680BC66
:1009A000704700BF80B483B000AF786000BF7B6841
:1009B000002B0CBF00220122D2B203F1FF337B6077
:1009C000002AF4D107F10C07BD4680BC704700BF78
:1009D00080B483B000AF78604FF020437A6812682B
:1009E000796848687968896808437968C9680843FC
:1009F00079680969084379684969084379688969A8
:100A000008437968C96908437968096A08437968BD
:100A1000496A08437968896A08437968C96A08435A
:100A20007968096B014343F822107B689B68082BA7
:100A30000DD14FF020437A6812684FF0204178685A
:100A4000006851F8201041F0400143F822104FF0A7
:100A500020437A68126802F101027968496B0868DC
:100A60007968496B49684FEA011108437968496B15
:100A700089684FEA012108437968496BC9684FEAE0
:100A8000014108437968496B09694FEA01510843FC
:100A90007968496B49694FEA016108437968496B94
:100AA0008969014343F822107B68DB6AB3F5804F04
:100AB00027D14FF48273CAF200037A68126879680A
:100AC000896B08687968896B49684FEA01110843A6
:100AD0007968896B89684FEA012108437968896BD5
:100AE00009694FEA015108437968896B49694FEAFE
:100AF000016108437968896B8969014343F82210D1
:100B000009E04FF48273CAF200037A6812686FF04A
:100B1000704143F8221007F10C07BD4680BC7047B6
:100B200080B483B000AF78600B46FB70FB78002B7D
:100B30000CD04FF020434FF02042796852F821202A
:100B400042F001017A6843F822100EE04FF0204293
:100B50004FF02043796853F821104FF6FE73C0F22E
:100B60000F030B40796842F8213007F10C07BD46AE
:100B700080BC704780B487B000AF786039604FF0B8
:100B800000037B614FF000033B614FF00003FB600B
:100B90004FF000037B6186E07B694FF0010202FAAF
:100BA00003F33B613B681A683B691340FB60FA68DA
:100BB0003B699A4273D17B681A687B694FEA4303A9
:100BC0004FF0030101FA03F36FEA03031A407B6855
:100BD0001A607B681A683B681B7919467B694FEA83
:100BE000430301FA03F31A437B681A603B681B79DD
:100BF000012B03D03B681B79022B34D17B689A68A8
:100C00007B694FEA43034FF0030101FA03F36FEAF4
:100C100003031A407B689A607B689A683B685B793B
:100C200019467B694FEA430301FA03F31A437B68D1
:100C30009A607B685A687B699BB24FF0010101FAA8
:100C400003F36FEA03031A407B685A607B685A68B3
:100C50003B689B7919467B699BB201FA03F39BB20F
:100C60001A437B685A607B68DA687B699BB24FEAFB
:100C700043034FF0030101FA03F36FEA03031A4041
:100C80007B68DA607B68DA683B68DB7919467B69E8
:100C90004FEA430301FA03F31A437B68DA607B6986
:100CA00003F101037B617B690F2B7FF675AF07F1C1
:100CB0001C07BD4680BC704780B485B000AF78602B
:100CC00013460A467A807B704FF00003FB604FF0BA
:100CD0000003BB607A787B8803F007034FEA830345
:100CE00002FA03F3FB607B884FEAD3039BB21A46F8
:100CF0007B884FEAD3039BB219467B6801F1080158
:100D000053F821107B8803F007034FEA83034FF069
:100D10000F0000FA03F36FEA030319407B6802F146
:100D2000080243F822107B884FEAD3039BB21A468D
:100D30007B6802F1080253F82220FB681343BB6072
:100D40007B884FEAD3039BB21A467B6802F1080204
:100D5000B96843F8221007F11407BD4680BC7047FC
:100D600080B500AF4FF46053C4F202034FF46052F9
:100D7000C4F20202126842F001021A604FF460539A
:100D8000C4F202034FF000029A604FF46053C4F2C1
:100D900002034FF46052C4F20202126822F084721D
:100DA00022F480321A604FF46053C4F2020343F21B
:100DB0001002C2F200425A604FF46053C4F20203C0
:100DC0004FF46052C4F20202126822F480221A60C8
:100DD0004FF46053C4F202034FF00002DA6000F0F7
:100DE00009F84FF46D43CEF200034FF000629A60B1
:100DF00080BD00BF80B483B000AF4FF000037B60C4
:100E00004FF000033B604FF46053C4F202034FF411
:100E10006052C4F20202126842F480321A604FF447
:100E20006053C4F202031B6803F400333B607B6829
:100E300003F101037B603B68002B03D17B68B3F5B2
:100E4000A06FECD14FF46053C4F202031B6803F4AB
:100E50000033002B03D04FF001033B6002E04FF062
:100E600000033B603B68012B40F082804FF46053ED
:100E7000C4F202034FF46052C4F20202126C42F058
:100E800080521A644FF4E043C4F200034FF4E0428E
:100E9000C4F20002126842F480421A604FF46053B8
:100EA000C4F202034FF46052C4F2020292689A60E4
:100EB0004FF46053C4F202034FF46052C4F20202D2
:100EC000926842F400429A604FF46053C4F2020305
:100ED0004FF46052C4F20202926842F4A0529A6047
:100EE0004FF46053C4F2020345F20842C0F240726C
:100EF0005A604FF46053C4F202034FF46052C4F2DC
:100F00000202126842F080721A6000BF4FF4605310
:100F1000C4F202031B6803F00073002BF6D04FF4F9
:100F20007053C4F2020340F205621A604FF460533A
:100F3000C4F202034FF46052C4F20202926822F03B
:100F400003029A604FF46053C4F202034FF46052FC
:100F5000C4F20202926842F002029A6000BF4FF4AB
:100F60006053C4F202039B6803F00C03082BF6D114
:0C0F700007F10C07BD4680BC704700BFB5
:0400000508000000EF
:00000001FF
